:020000020000FC
:100000000C9406000C94AD000C947A000FEF0DBF19
:1000100001E20EBF0FEF00930A0101B90027009320
:100020000B0102B90F9308E377D192D10F91B0D1B0
:100030000F9308E371D18CD10F91A1D10F9308E3F5
:100040006BD186D10F910F9308E366D181D10F91C7
:100050000F9308E061D17CD10F910F9301E05CD147
:1000600077D10F910F9306E057D172D10F910F9373
:100070000EE052D16DD10F910F9302E559D168D1A5
:100080000F910F9305E654D163D10F910F9301E6C1
:100090004FD15ED10F910F9304E64AD159D10F9100
:1000A0000F9309E745D154D10F910F930EE240D140
:1000B0004FD10F910F930EE23BD14AD10F910F9385
:1000C0000EE236D145D10F9140EF40BB0FEF07B99B
:1000D000002708B90DB303600DBB0AE00093690067
:1000E00078946627FF24C0E0D2E0688305E005BD70
:1000F0000C94F500409A419A429A439A0E94CE018C
:100100000E94CE010E94CE014098419842984398A7
:100110000E94CE010E94CE01409A419A429A439A8F
:100120000E94CE010E94CE01409841984298439887
:100130000E94CE010E94CE010E94CE01409A419AB7
:10014000429A439A0E94CE010E94CE010E94CE01A3
:10015000409841984298439818950DB302700DBB92
:10016000E09A6F3F09F008C00DB303600DBBE09A41
:10017000789444980C94FD006FEF449A0F9301E03B
:10018000CBD0E6D00F910F9303E5D2D0E1D00F9101
:100190000F9304E7CDD0DCD00F910F9301E6C8D0C8
:1001A000D7D00F910F9302E7C3D0D2D00F910F9306
:1001B00004E7BED0CDD00F910F930EE2B9D0C8D0D6
:1001C0000F910F930EE2B4D0C3D00F910F930EE2B4
:1001D000AFD0BED00F910E94EF010E94EF010DB38E
:1001E00001600DBBE09A77271895459A6F3F09F09B
:1001F000FCCF0E94D9010C94F900F61619F10F9367
:1002000001E08AD0A5D00F910F9303E591D0A0D043
:100210000F910F9303E68CD09BD00F910F930FE6B5
:1002200087D096D00F910F9302E782D091D00F9193
:100230000F9305E67DD08CD00F910F930AE378D011
:1002400087D00F910E9454020E94BF01C0E0D2E00B
:1002500008810030B9F346B50E94500201531127BE
:1002600018B9479846984598403021F0413021F020
:10027000423021F0479A03C0469A01C0459A0417BC
:10028000F1F100270883703039F07A95703021F051
:100290000E9408020C948B01FF240E94F8010F9326
:1002A00001E03AD055D00F910F9303E541D050D0E3
:1002B0000F910F9304E73CD04BD00F910F9301E6C1
:1002C00037D046D00F910F9302E732D041D00F9133
:1002D0000F9304E72DD03CD00F910F930EE228D05E
:1002E00037D00F910F930EE223D032D00F910F939E
:1002F0000EE21ED02DD00F91449A0C94F900F62EE8
:1003000073950E940802519A5198002708830C9413
:100310008B010C942201FFCF00930B010000169A71
:100320000000000000001698000000000000089582
:1003300000930B01179A000000000000169A0000BD
:1003400000000000169800000000000017980895B3
:100350000F93002700930A0100930B01159A0000E8
:10036000169A00000000000000910901169807FD90
:10037000F6CF15980FEF00930A010F9108958F9310
:100380009F939FE08CE90197F1F79F918F910895DA
:10039000F6DFF5DFF4DFF3DFF2DF08950E94C80136
:1003A0000E94C8010E94C8010E94C8010E94C801A1
:1003B0000895479846984598000000000000000006
:1003C000000000000000000000000000000000002D
:1003D000000000000000479A469A459A08950E943E
:1003E000CE010E94CE010E94CE010E94CE0108954E
:1003F0000F9308EC0E94C8010A950030D9F70F91BD
:10040000089525E00E94F8012A952030D9F7089533
:100410007F930F9301E080DF9BDF0F910F9303E544
:1004200087DF96DF0F910F9303E682DF91DF0F9155
:100430000F930FE67DDF8CDF0F910F9302E778DFDC
:1004400087DF0F910F9305E673DF82DF0F910F9324
:100450000AE36EDF7DDF0F9110E3743628F0743607
:1004600018F074461395FBCF012F0E9498010E944B
:10047000A80110E37A3028F07A3018F07A4013950A
:10048000FBCF012F0E9498010E94A80140E3740F46
:10049000072F0E9498010E94A80177277F91089555
:1004A00043504330E8F70895479A469A459A3FEEFD
:1004B00011271430C9F331BB4FEF4A95F1F74FB113
:1004C0004798469845984F704F3059F021E00027E3
:1004D000043039F0542F522341F00395220F0C942D
:1004E0006802330F13950C945902133049F003300E
:1004F00059F0402F440F400F410F4F5C0C948F0276
:1005000041E4400F0C948F02103029F0113031F08B
:1005100043E20C948F024AE20C948F0240E3C0E065
:06052000D2E048830895BB
:00000001FF
