:020000020000FC
:080000000C9430000C94820006
:10005C000C948500C0E0D2E00027099308835798E0
:10006C000DB301600DBB02E00093690078940FEFB3
:10007C0007B901B97F9378E30E94C6000E94E000A3
:10008C007F91CFD07F9378E30E94C6000E94E0005E
:10009C007F91C4D0C3D07F9378E30E94C6000E94A6
:1000AC00E0007F917F9378E30E94C6000E94E000FD
:1000BC007F917F9378E00E94C6000E94E0007F91C0
:1000CC007F9371E00E94C6000E94E0007F917F93B5
:1000DC0076E00E94C6000E94E0007F917F937FE053
:1000EC000E94C6000E94E0007F91809A889A112796
:1000FC00772720E30C94BD000E94F3001895C0E014
:10010C00D2E089919881019608EE801769F503E099
:10011C00900750F11695169562D020E3143628F00E
:10012C00143618F014462395FBCF722F0E94D10081
:10013C000E94E00020E31A3028F01A3018F01A4020
:10014C002395FBCF722F0E94D1000E94E00000E3A8
:10015C00100F712F0E94D1000E94E0001127C0E007
:10016C00D2E000270993088398838A931895002777
:10017C0004BD03E005BD01E000936E007894FFCF51
:10018C0078B90000169A00000000000016980000D4
:10019C0000000000089578B9179A000000000000D4
:1001AC00169A0000000000001698000000000000E5
:1001BC00179808957F93772777B978B9159A000027
:1001CC00169A00000000000076B1169877FDF7CF64
:1001DC0015987FEF77B97F910895139508957F93C4
:1001EC0071E00E94C6000E94E0007F917F9376E050
:1001FC000E94C6000E94E0007F917F937FE00E94E6
:10020C00C6000E94E0007F9108958F939F9397E022
:10021C008CEC0197F1F79F918F910895F6DFF5DF44
:10022C000895F3DFF2DFF1DFF0DFEFDFEEDFEDDF7C
:08023C00ECDFEBDFEADF0895BF
:00000001FF
