:020000020000FC
:100000000C9404000C9414004FE040BB4FEF47B930
:1000100048B942E0409369004DB341604DBB7894CC
:10002000662777270C9481004F9348B14F934FEF89
:1000300048B980E094E001979F938F9301978030B7
:10004000E9F79030D9F700008F919F91803099F7B0
:10005000903089F70000442748B980E094E0019788
:100060009F938F9301978030E9F79030D9F7000084
:100070008F919F91803099F7903089F700004FEF72
:1000800048B980E094E001979F938F930197803067
:10009000E9F79030D9F700008F919F91803099F760
:1000A000903089F70000442748B980E094E0019738
:1000B0009F938F9301978030E9F79030D9F7000034
:1000C0008F919F91803099F7903089F700004FEF22
:1000D00048B980E094E001979F938F930197803017
:1000E000E9F79030D9F700008F919F91803099F710
:1000F000903089F70000442748B94F9148B94F9193
:10010000189537EF11271430E1F331BB4FEF4A95C3
:10011000F1F74FB1407F403F59F020E10027043014
:1001200039F0542F522341F00395220F0C948F0085
:10013000359513950C948300133049F0033059F032
:10014000402F440F400F410F4F5C0C94B60041E428
:10015000400F0C94B600103029F0113031F043E21A
:100160000C94B6004AE20C94B60040E380E094E0C0
:1001700001979F938F9301978030E9F79030D9F7DB
:1001800000008F919F91803099F7903089F700009F
:100190004A3251F0433261F040535AE0659F602D7E
:1001A000640F68B90C9481006F9366270C948100EA
:1001B0007F91769F412D403019F408B80C9481004E
:0A01C000509A589A58980C94810048
:00000001FF
