:020000020000FC
:10000000F9150900CFEFD1E2CDBFDDBFE0E0F0E0B0
:1000100005911491E2E0F0E02591349106D0C0E022
:10002000D2E0699178810000FECFEF93FF930F93A8
:100030001F932F933F934F935F936F937F93CDB70E
:10004000DEB7229729833A83CDBFDDBF41E0552734
:1000500066277727882720173107B8F42070307873
:100060008FEF2827382788272817380771F081E075
:1000700029813A81330F27FD380F220F550F47FD95
:10008000580F440F29833A83E6CF8827481758072B
:10009000A8F04817580791F00217130750F480E8AA
:1000A000269530FD280F3695469550FD480F5695FC
:1000B000ECCF021B130B640F751FF1CFA0E0B2E071
:1000C0006D937C932296CDBFDEBF7F916F915F9140
:1000D0004F913F912F911F910F91FF91EF910895B3
:00000001FF
